:1000000008308A0000280000C131F434F632A026FE
:100010006F32651DA0266137F5306C005421311D0B
:1000200031102010D4326D38BA274623201020100A
:1000300000015421311D30102010D4326D38BA2700
:1000400046232010201000015421321D31102010B1
:10005000C83AED34BA274623201020005421321D1F
:1000600030102010C83AED34BA2746232010200063
:100070005421331D311020104937F432BA2746235A
:10008000201020005421331D301020104937F43245
:10009000BA27462320102000C131F434F632A026BE
:1000A0006F32651DA020753A6F1020005421311D5C
:1000B00031102010D4326D38BA12331731330000AA
:1000C000431000015421311D30102010D4326D38FE
:1000D000BA12331731330001431000015421321D8D
:1000E00031102010C83AED34BA1233173133A5124B
:1000F00020005421321D30102010C83AED34BA12BD
:1001000033173133A51220005421331D3110201034
:100110004937F432BA123417313300015421331DF8
:10012000301020104937F432BA123417313300003E
:100130004A189C2806129D2806168316061283125A
:10014000CA18A4288612A52886168316861283123A
:100150004A19AC280613AD28061783160613831216
:10016000CA19B4288613B5288617831686138312F6
:1001700008004A308400831300080319CC28063095
:10018000F800F701F70BC228F80BC1287B30F70005
:10019000F70BC828800BBF280800831606118312AE
:1001A00006150430F700F70BD328D628831606115E
:1001B000831206110330CA00B9200800C90E49088D
:1001C000CA009820CD20C90E4908CA009820CD2029
:1001D0000800CA019820C830CA00B920831606104A
:1001E000831206100330CA009820CD20CD20CD20E8
:1001F0000230CA009820CD202C30C900DE200C30FF
:10020000C900DE200630C900DE200130C900DE2032
:100210008A150A121F28831606108312061448082E
:10022000C900DE20831606108312061008000B0892
:10023000BB008B13831603178C170C1400000000EF
:1002400083120313BB1B8B1703170C087F39031989
:100250006B290313BB0003170D080313BC0003171E
:100260000F080313BD003B08C8000B213C0803170F
:100270008D0003133D0803178F0003130B08BE0006
:100280008B13831603178C170C14000000008312C5
:100290000313BE1B8B1703170C0D0E0D7F390319AB
:1002A0006B290313BB0003170D080313BC000317CE
:1002B0000F080313BD003B08C8000B213C080317BF
:1002C0008D0003133D0803178F008D0A03198F0A51
:1002D000031317290317031308008E30F7003C0897
:1002E000F8003B08F900FA01F808031D8129790894
:1002F000F800F9010830F702F808031D8129F70119
:1003000089290310F81B8829F90DF80DF7038129B5
:10031000F813080048080319FA29D0004C080319FB
:10032000FA29D00703189B297F30D002031CFA2931
:100330000319FA299F298130D0070318FA29500898
:10034000F700F801F901FA014908D400D4174A0866
:10035000D3004B08D2001830D000D101521CC8295C
:100360004F08FA07031CBA29F90A031DBA29F80A2B
:100370000319D1174E08F907031CC129F80A0319FC
:10038000D1174D08CA00CA174A08F8070318D11731
:10039000D10DF80CF90CFA0CD40CD30CD20C0310C0
:1003A000D00BAD290130F7070318FA29F81BDF2914
:1003B000D40DFA0DF90DF80DF7030319FA29D41F1E
:1003C000F029FA0A031DF029F90A031DF029F80A99
:1003D000031DF029F80CF90CFA0CF70A0319FA2995
:1003E0004908D1004D08D106D11FF829F817FE2978
:1003F000F813FE29F701F801F901FA0108003F0896
:100400000319C42ACB0043080319C42ACB02031CD6
:100410000E2A7F30CB070318C42A142A8130CB025E
:10042000031CC42A0319C42A4B08F700F801F90178
:10043000FA01CA014008C900C9174108C8004208AA
:10044000C7001930CB004608C7020318372A01300D
:10045000C8020318372AC9020318372ACA02031828
:10046000372ACA0AC90AC80A4608C707692A4508B6
:10047000C8020318522A0130C9020318522ACA02BC
:100480000318522ACA0AC90A4508C8074608C707F6
:10049000031C692AC80A031D692AC90A031D692A9F
:1004A000CA0A692A44088038C9020318682A013038
:1004B000CA020318682ACA0A44088038C9074508CE
:1004C000C807031C462AC90A031D462ACA0A462A27
:1004D0007A14CB0B6C2A772A0310C70DC80DC90DEF
:1004E000CA0D0310FA0DF90DF80DCC0D232A4C1C82
:1004F0007F2A0310F80CF90CFA0CCC0C822AF703B3
:100500000319C42ACC1BAB2A0310C70DC80DC90D93
:10051000CA0D4608C7020318972A0130C8020318FB
:10052000972AC9020318972ACA02031CBA2A450847
:10053000C8020318A22A0130C9020318A22ACA025B
:10054000031CBA2A44088038C9020318AB2A0130B8
:10055000CA02031CBA2AFA0A031DBA2AF90A031DA1
:10056000BA2AF80A031DBA2AF70A0319C42AF80C92
:10057000F90CFA0C4008CB004408CB06CB1FC22A6A
:10058000F817C82AF813C82AF701F801F901FA0187
:1005900008000030F8001F08C73978049F00203099
:1005A000F700F70BD12AD42A00001F151F19D62AED
:1005B00083161E088312A9001E08AA002A08BC0080
:1005C0002908BB006D217A08CB007908CA00780899
:1005D000C9007708C800CF01C030CE007F30CD0001
:1005E0008830CC008A217A08BE007908BD007808DE
:1005F000BC007708BB007A08C2007908C1007808FF
:10060000C0007708BF00C601C030C5007F30C400FD
:100610008930C300FF217A08BA007908B900780848
:10062000B8007708B7000830F8001F08C739780409
:100630009F002030F700F70B1B2B1E2B00001F150F
:100640001F19202B83161E088312AB001E08AC0056
:100650002C08BC002B08BB006D217A08BE0079086D
:10066000BD007808BC007708BB003E08CB003D0801
:10067000CA003C08C9003B08C800CF01CE01483081
:10068000CD008530CC008A217A08BE007908BD00F3
:100690007808BC007708BB003E08C2003D08C100D6
:1006A0003C08C0003B08BF00C601C030C5007F3019
:1006B000C4008830C300FF218314BE01BD0148304F
:1006C000BC008530BB007A08C2007908C1007808F8
:1006D000C0007708BF0080308318C006C501C6017E
:1006E0003C08C4004008C4063B0803195B2CC30047
:1006F000F7003F080319642CC3020319002C031CE4
:10070000BE2B4008C900C9174108C8004208C700ED
:10071000C6010310C90CC80CC70CC60CC30B882B30
:10072000C41F952B4514782C4510431045163E30B8
:10073000840083138D2C4512C41BA82B431CB32BA0
:10074000C90CC80CC70CC60CF70A0319732CB32BC1
:10075000C91BB62B0310C60DC70DC80DC90DF70375
:100760000319732CA82B4517202C45133C08C400F3
:10077000C41FBC2BC9176C2CC9136C2C3F08C300B9
:10078000F7003B08C3023C08C900C9173D08C80070
:100790003E08C700C6010310C90CC80CC70CC60C24
:1007A000C30BCA2BC41FD72BC514782CC5104310FC
:1007B000C5164230840083138D2CC512C41BEA2B4E
:1007C000431CF52BC90CC80CC70CC60CF70A03193F
:1007D000732CF52BC91BF82B0310C60DC70DC80DC4
:1007E000C90DF7030319732CEA2BC517202CC51369
:1007F0004008C400C41FFE2BC9176C2CC9136C2CF5
:100800004008C900C9174108C8004208C700C41FF2
:100810000D2CC9134515782C4511C60143103E30E7
:10082000840083138D2CC41B362C3C08C400431C4D
:10083000202CC90CC80CC70CC60CF70A0319732C62
:10084000C61F312CC70A031D312CC80A031D312CC9
:10085000C90A031D312CC90CC80CC70CF70A0319AF
:10086000732C451BB52BC51BF72B552C8030C906A7
:10087000C91F3E2C782C4008C4004B2C3C08C400F7
:10088000C908031D4B2CC808031D4B2CC708031DAA
:100890004B2CF7016C2CC91B552C0310C60DC70D32
:1008A000C80DC90DF70B4B2C732CC41F592CC9173D
:1008B0006C2CC9136C2C3F08F7004008C900410894
:1008C000C8004208C7006C2C3B08F7003C08C90070
:1008D0003D08C8003E08C7004908F8004808F9006C
:1008E0004708FA00AB2CF701F801F901FA01AB2C2B
:1008F000C601C709C809C909C609C60A031D862C4D
:10090000C70A031D862CC80A0319C90A4518942B67
:10091000C518D62B45190C2C3B2C0008C707031C07
:10092000972CC80A031D972CC90A03194314840382
:100930000008C807031C9F2CC90A03194314840329
:100940000008801F803AC90703184314451A9B2BDF
:10095000C51ADD2B132C7A08B2007908B10078088B
:10096000B0007708AF001030F8001F08C7397804CE
:100970009F002030F700F70BBB2CBE2C00001F158A
:100980001F19C02C83161E088312AD001E08AE006E
:100990002E08BC002D08BB006D217A08B60079082E
:1009A000B5007808B4007708B3008A150A12AD299B
:1009B0003C08C3004008C306C31FE32C0311031007
:1009C000BC1B0314162D3C08C3003F08C4003B08A1
:1009D000C4020319F12CC31F162D0308013A83002A
:1009E000162D4008C4003C08C4020319FD2CC31F87
:1009F000162D0308013A8300162D4108C4003D0856
:100A0000C4020319092DC31F162D0308013A8300E0
:100A1000162D4208C4003E08C4020319152DC31F39
:100A2000162D0308013A8300162D031008000B0849
:100A3000BC008B13831603178C170C1400000000E6
:100A400083120313BC1B8B1703184E2D03170C08BE
:100A50007F390313BC0003170D080313BD000317F0
:100A60000F080313BE003C08C8000B213D08031704
:100A70008D0003133E0803178F0003130B08BF00FC
:100A80008B13831603178C170C14000000008312BD
:100A90000313BF1B8B17BB0B4E2D6D2D03170C0DB6
:100AA0000E0D7F390313BC0003170D080313BD009F
:100AB00003170F080313BE003C08C8000B213D08B4
:100AC00003178D0003133E0803178F008D0A0319C7
:100AD0008F0A03100313BB0B172D08008318732D07
:100AE000503084008313F701F801F901FA01D001B5
:100AF000D101D201D3014F084E044D044C04031917
:100B0000B12D2030D4000310C80DC90DCA0DCB0D76
:100B1000D00DD10DD20DD30D4F085302031D9A2DC8
:100B20004E085202031D9A2D4D085102031D9A2DA5
:100B30004C085002031CAB2D4C08D0024D08031C7E
:100B40004D0FD1024E08031C4E0FD2024F08031C5A
:100B50004F0FD3020314F70DF80DF90DFA0DD40B56
:100B6000832D50088000840A51088000840A5208AE
:100B70008000840A5308800008000408C0003F0871
:100B8000C2000319DC2D3E08CB003D08CA003C081A
:100B9000C9003B08C800CF01CE012030CD00823013
:100BA000CC008A217A08BE007908BD007808BC0014
:100BB0007708BB00C20BC32D3E08CB003D08CA001E
:100BC0003C08C9003B08C8004808B63CC800FA0108
:100BD0004908CC00C9170310C90CCA0CCB0CFA0C7D
:100BE000F90CF80CF70CC80BEB2DCC1F022EF709F3
:100BF000F809F909FA09F70A0319F80A0319F90AB1
:100C00000319FA0A7A08BE007908BD007808BC000A
:100C10007708BB00BE1F192EC003C016BB09BC0954
:100C2000BD09BE09BB0A0319BC0A0319BD0A031991
:100C3000BE0A3B30C7009A30C600CA30C500C401A6
:100C40000A30C2003F080319C00A83143B308400F5
:100C500083133E08CB003D08CA003C08C9003B088E
:100C6000C8004708CF004608CE004508CD0044081C
:100C7000CC006E257808F708031D512E3F0A42026A
:100C80000319512E40080319532E0F39420203193C
:100C90004B2E0318832EC01B832E401B532E203057
:100CA0007F2E2030C005C01E612EC0123F08031DDC
:100CB000C0037708C0002D30C8000B214008F700A2
:100CC000C0013F084202031D6F2E7708C0002E307E
:100CD000C8000B214008F7002030C005003030303C
:100CE000C01E7F2EC0123F08031DC0037708C0003E
:100CF0002D30C8000B214008F700C0013030F70745
:100D00007708C8000B2183104708CB004608CA00AB
:100D10004508C9004408C800CF01CE01CD010A3002
:100D2000CC006E257A08C7007908C6007808C5008F
:0A0D30007708C400C20B252E08004E
:1010000003081F398300FF30A200A301A401A5013A
:10101000A601A701A80183161F149F141F159F1175
:1010200007309C0083138312A001A1018610831650
:101030008601FF30870088018A118312E9288A150A
:1010400083161F1783121F179F1383169F17831270
:101050001F1483161F149F101F119F158312A215B2
:101060002208831687000030831287190130003A66
:1010700003193E28013A03199D29112B8030C9001C
:101080008A11DE208A15043003178D0000308F008E
:101090008A11031317218A15221422088316870048
:1010A000831207186D28A308031D6D282214220837
:1010B00083168700831207186028A308031956288F
:1010C0003230CA008A11B9208A150130A300831674
:1010D000081383120817A6008828221422088316F2
:1010E0008700831207188828230B882822142208D7
:1010F000831687008312071876283230CA008A11B7
:10110000B9208A15A3018316081383120813A601B8
:10111000260BA228C030C9008A11DE208A15323081
:10112000CA008A11B9208A150E3003178D000030CD
:101130008F008A11031317218A158316081383124F
:101140000817BC28A608031DBC28C030C9008A1196
:10115000DE208A153230CA008A11B9208A1519306A
:1011600003178D0000308F008A11031317218A1591
:101170008316081383120813A2142208831687000B
:1011800083128718DD28A408031DDD28A214220875
:101190008316870083128718D028A4080319C6284D
:1011A0003230CA008A11B9208A150130A400831692
:1011B000881283128816A700F828A2142208831622
:1011C000870083128718F828240BF828A214220815
:1011D000831687008312871CE6283230CA008A11E2
:1011E000B9208A15A4018316881283128812A701D8
:1011F000270B12299430C9008A11DE208A1532305B
:10120000CA008A11B9208A15243003178D000030D6
:101210008F008A11031317218A15831688128312EF
:1012200088162C29A708031D2C299430C9008A117F
:10123000DE208A153230CA008A11B9208A152E3074
:1012400003178D0000308F008A11031317218A15B0
:1012500083168812831288122215220883168700AB
:10126000831207194D29A508031D4D2922152208AF
:1012700083168700831207194029A5080319362908
:101280003230CA008A11B9208A150130A5008316B0
:10129000081283120816A80068292215220883164E
:1012A0008700831207196829250B6829221522084F
:1012B000831687008312071D56293230CA008A110F
:1012C000B9208A15A5018316081283120812A801F5
:1012D000280B8229D430C9008A11DE208A153230C9
:1012E000CA008A11B9208A15383003178D000030E2
:1012F0008F008A11031317218A158316081283128F
:1013000008169C29A808031D9C29D430C9008A11FD
:10131000DE208A153230CA008A11B9208A1542307F
:1013200003178D0000308F008A11031317218A15CF
:101330008316081283120812112B8030C9008A11FB
:10134000DE208A154C3003178D0000308F008A1183
:10135000031317218A158A11C92A8A15BE01BD01F6
:101360002030BC008430BB003A08C2003908C100FC
:101370003808C0003708BF008A11D8248A1503181E
:10138000C329031DFB29C030C9008A11DE208A153C
:101390003230CA008A11B9208A15563003178D00E1
:1013A00000308F0003100D300313BB008A11172586
:1013B0008A15023084003A08BE003908BD0038089A
:1013C000BC003708BB000130BF008A11BD258A155B
:1013D000DF30C8008A110B218A15603003178D0099
:1013E00000308F008A11031317218A158316081302
:1013F000831208172D2AC030C9008A11DE208A15F1
:10140000623003178D0000308F0003100D3003137E
:10141000BB008A1117258A15023084003A08BE00E5
:101420003908BD003808BC003708BB000130BF00D8
:101430008A11BD258A15DF30C8008A110B218A1553
:101440006C3003178D0000308F008A1103131721B1
:101450008A158316081383120813BE01BD01483094
:10146000BC008430BB003208C2003108C100300823
:10147000C0002F08BF008A11D8248A150318422AF9
:10148000031D762A9430C9008A11DE208A15323075
:10149000CA008A11B9208A156E3003178D000030FA
:1014A0008F0003100D300313BB008A1117258A1516
:1014B000023084003208BE003108BD003008BC0094
:1014C0002F08BB000130BF008A11BD258A152530C9
:1014D000C8008A110B218A152030C8008A110B21FF
:1014E0008A158316881283128816A92A9430C90097
:1014F0008A11DE208A153230CA008A11B9208A1575
:10150000793003178D0000308F0003100D30031366
:10151000BB008A1117258A15023084003208BE00EC
:101520003108BD003008BC002F08BB000130BF00EF
:101530008A11BD258A152530C8008A110B218A150C
:101540002030C8008A110B218A1583168812831255
:101550008812BE01BD011630BC008830BB003608C1
:10156000C2003508C1003408C0003308BF008A112A
:10157000D8248A150318BE2A031DE82AD430C900CE
:101580008A11DE208A153230CA008A11B9208A15E4
:10159000843003178D0000308F0003100D300313CB
:1015A000BB008A1117258A15033084003608BE0057
:1015B0003508BD003408BC003308BB000130BF0053
:1015C0008A11BD258A158316081283120816112B5D
:1015D000D430C9008A11DE208A153230CA008A113F
:1015E000B9208A158E3003178D0000308F0003104C
:1015F0000D300313BB008A1117258A1503308400B0
:101600003608BE003508BD003408BC003308BB00F6
:101610000130BF008A11BD258A1583160812831276
:0616200008122F286300F0
:02400E003A3F37
:00000001FF
;PIC16F877A
;CRC=D831  CREATED="16-Jun-23 18:01"
