:1000000000308A001B28000022308400831300087F
:10001000031918280130F800F701F70B0D28F80B29
:100020000C284A30F700F70B13281628800B0A28F3
:100030008A110A12392803081F39830083161F14F6
:100040009F141F159F1107309C00831301308600F9
:1000500006148312061C3C28A1012108023C031C43
:100060003B2883168810023083128806C830A2000D
:100070000428A10A2D28402883168810831288108E
:060080008316282863002E
:02400E00723FFF
:00000001FF
;PIC16F877A
;CRC=2C9B  CREATED="01-May-23 14:54"
